{
    "contractName": "HelloWorld",
    "abi": [
        {
            "inputs": [],
            "stateMutability": "nonpayable",
            "type": "constructor"
        },
        {
            "inputs": [
                {
                    "internalType": "string",
                    "name": "nm",
                    "type": "string"
                }
            ],
            "name": "setName",
            "outputs": [],
            "stateMutability": "nonpayable",
            "type": "function"
        },
        {
            "inputs": [],
            "name": "yourName",
            "outputs": [
                {
                    "internalType": "string",
                    "name": "",
                    "type": "string"
                }
            ],
            "stateMutability": "view",
            "type": "function"
        }
    ],
    "bytecode": "608060405234801561001057600080fd5b50604080518082019091526007808252662ab735b737bbb760c91b602090920191825261003f91600091610045565b50610118565b828054610051906100de565b90600052602060002090601f01602090048101928261007357600085556100b9565b82601f1061008c57805160ff19168380011785556100b9565b828001600101855582156100b9579182015b828111156100b957825182559160200191906001019061009e565b506100c59291506100c9565b5090565b5b808211156100c557600081556001016100ca565b600181811c908216806100f257607f821691505b60208210810361011257634e487b7160e01b600052602260045260246000fd5b50919050565b610338806101276000396000f3fe608060405234801561001057600080fd5b50600436106100365760003560e01c8063c47f00271461003b578063d97d663014610050575b600080fd5b61004e6100493660046101c2565b61006e565b005b610058610085565b6040516100659190610273565b60405180910390f35b8051610081906000906020840190610113565b5050565b60008054610092906102c8565b80601f01602080910402602001604051908101604052809291908181526020018280546100be906102c8565b801561010b5780601f106100e05761010080835404028352916020019161010b565b820191906000526020600020905b8154815290600101906020018083116100ee57829003601f168201915b505050505081565b82805461011f906102c8565b90600052602060002090601f0160209004810192826101415760008555610187565b82601f1061015a57805160ff1916838001178555610187565b82800160010185558215610187579182015b8281111561018757825182559160200191906001019061016c565b50610193929150610197565b5090565b5b808211156101935760008155600101610198565b634e487b7160e01b600052604160045260246000fd5b6000602082840312156101d457600080fd5b813567ffffffffffffffff808211156101ec57600080fd5b818401915084601f83011261020057600080fd5b813581811115610212576102126101ac565b604051601f8201601f19908116603f0116810190838211818310171561023a5761023a6101ac565b8160405282815287602084870101111561025357600080fd5b826020860160208301376000928101602001929092525095945050505050565b600060208083528351808285015260005b818110156102a057858101830151858201604001528201610284565b818111156102b2576000604083870101525b50601f01601f1916929092016040019392505050565b600181811c908216806102dc57607f821691505b6020821081036102fc57634e487b7160e01b600052602260045260246000fd5b5091905056fea264697066735822122041f0c68678a729719130eb11f0ce7ba8d71e5ed444a07646b3c29365bf22c65a64736f6c634300080e0033",
    "sourcePath": "/home/huramiral/Flutter_Projects/deneme6/contracts/HelloWorld.sol",
    "compiler": {
        "name": "solc",
        "version": "0.8.14+commit.80d49f37"
    },
    "functionHashes": {
        "setName(string)": "c47f0027",
        "yourName()": "d97d6630"
    },
    "gasEstimates": {
        "creation": {
            "codeDepositCost": "164800",
            "executionCost": "infinite",
            "totalCost": "infinite"
        },
        "external": {
            "setName(string)": "infinite",
            "yourName()": "infinite"
        }
    }
}